{
  "_format": "hh-sol-artifact-1",
  "contractName": "Lottery",
  "sourceName": "contracts/Lottery.sol",
  "abi": [
    {
      "inputs": [],
      "stateMutability": "nonpayable",
      "type": "constructor"
    },
    {
      "anonymous": false,
      "inputs": [
        {
          "indexed": true,
          "internalType": "address",
          "name": "oldOwner",
          "type": "address"
        },
        {
          "indexed": true,
          "internalType": "address",
          "name": "newOwner",
          "type": "address"
        }
      ],
      "name": "ChangeOwnerEvent",
      "type": "event"
    },
    {
      "anonymous": false,
      "inputs": [
        {
          "indexed": true,
          "internalType": "uint256",
          "name": "voteId",
          "type": "uint256"
        },
        {
          "indexed": false,
          "internalType": "enum Lottery.Proposals",
          "name": "proposal",
          "type": "uint8"
        },
        {
          "indexed": false,
          "internalType": "uint256",
          "name": "maxVoteCount",
          "type": "uint256"
        }
      ],
      "name": "DeclareWinnerEvent",
      "type": "event"
    },
    {
      "anonymous": false,
      "inputs": [
        {
          "indexed": true,
          "internalType": "address",
          "name": "voter",
          "type": "address"
        },
        {
          "indexed": false,
          "internalType": "enum Lottery.Proposals",
          "name": "proposal",
          "type": "uint8"
        }
      ],
      "name": "VoteProposalEvent",
      "type": "event"
    },
    {
      "anonymous": false,
      "inputs": [
        {
          "indexed": false,
          "internalType": "address",
          "name": "voterAddress",
          "type": "address"
        }
      ],
      "name": "VoterRegisteredEvent",
      "type": "event"
    },
    {
      "inputs": [
        {
          "internalType": "uint256",
          "name": "votingId",
          "type": "uint256"
        },
        {
          "internalType": "enum Lottery.Proposals",
          "name": "proposal",
          "type": "uint8"
        },
        {
          "internalType": "uint256",
          "name": "maxVoteCount",
          "type": "uint256"
        }
      ],
      "name": "addHistory",
      "outputs": [],
      "stateMutability": "nonpayable",
      "type": "function"
    },
    {
      "inputs": [
        {
          "internalType": "address",
          "name": "newOwner",
          "type": "address"
        }
      ],
      "name": "changeOwner",
      "outputs": [],
      "stateMutability": "nonpayable",
      "type": "function"
    },
    {
      "inputs": [],
      "name": "declareWinner",
      "outputs": [
        {
          "internalType": "enum Lottery.Proposals",
          "name": "",
          "type": "uint8"
        }
      ],
      "stateMutability": "nonpayable",
      "type": "function"
    },
    {
      "inputs": [],
      "name": "destroy",
      "outputs": [],
      "stateMutability": "nonpayable",
      "type": "function"
    },
    {
      "inputs": [],
      "name": "getBalance",
      "outputs": [
        {
          "internalType": "uint256",
          "name": "",
          "type": "uint256"
        }
      ],
      "stateMutability": "view",
      "type": "function"
    },
    {
      "inputs": [],
      "name": "getTenMostRecentHistoryEntries",
      "outputs": [
        {
          "components": [
            {
              "internalType": "uint256",
              "name": "votingId",
              "type": "uint256"
            },
            {
              "internalType": "enum Lottery.Proposals",
              "name": "proposal",
              "type": "uint8"
            },
            {
              "internalType": "uint256",
              "name": "maxVoteCount",
              "type": "uint256"
            }
          ],
          "internalType": "struct Lottery.History[]",
          "name": "",
          "type": "tuple[]"
        }
      ],
      "stateMutability": "view",
      "type": "function"
    },
    {
      "inputs": [
        {
          "internalType": "uint256",
          "name": "",
          "type": "uint256"
        }
      ],
      "name": "historyOfProposals",
      "outputs": [
        {
          "internalType": "uint256",
          "name": "votingId",
          "type": "uint256"
        },
        {
          "internalType": "enum Lottery.Proposals",
          "name": "proposal",
          "type": "uint8"
        },
        {
          "internalType": "uint256",
          "name": "maxVoteCount",
          "type": "uint256"
        }
      ],
      "stateMutability": "view",
      "type": "function"
    },
    {
      "inputs": [],
      "name": "owner",
      "outputs": [
        {
          "internalType": "address",
          "name": "",
          "type": "address"
        }
      ],
      "stateMutability": "view",
      "type": "function"
    },
    {
      "inputs": [
        {
          "internalType": "uint256",
          "name": "",
          "type": "uint256"
        }
      ],
      "name": "proposals",
      "outputs": [
        {
          "internalType": "enum Lottery.Proposals",
          "name": "proposal",
          "type": "uint8"
        },
        {
          "internalType": "uint256",
          "name": "voteCount",
          "type": "uint256"
        }
      ],
      "stateMutability": "view",
      "type": "function"
    },
    {
      "inputs": [
        {
          "internalType": "address",
          "name": "_voterAddress",
          "type": "address"
        }
      ],
      "name": "registerVoter",
      "outputs": [],
      "stateMutability": "nonpayable",
      "type": "function"
    },
    {
      "inputs": [],
      "name": "reset",
      "outputs": [],
      "stateMutability": "nonpayable",
      "type": "function"
    },
    {
      "inputs": [],
      "name": "scrumVotingId",
      "outputs": [
        {
          "internalType": "uint256",
          "name": "",
          "type": "uint256"
        }
      ],
      "stateMutability": "view",
      "type": "function"
    },
    {
      "inputs": [
        {
          "internalType": "enum Lottery.Proposals",
          "name": "votedProposal",
          "type": "uint8"
        }
      ],
      "name": "voteProposal",
      "outputs": [],
      "stateMutability": "payable",
      "type": "function"
    },
    {
      "inputs": [
        {
          "internalType": "address",
          "name": "",
          "type": "address"
        }
      ],
      "name": "voters",
      "outputs": [
        {
          "internalType": "bool",
          "name": "registered",
          "type": "bool"
        },
        {
          "internalType": "uint256",
          "name": "remainingVotes",
          "type": "uint256"
        }
      ],
      "stateMutability": "view",
      "type": "function"
    },
    {
      "inputs": [],
      "name": "withdraw",
      "outputs": [],
      "stateMutability": "nonpayable",
      "type": "function"
    }
  ],
  "bytecode": "0x608060405234801561001057600080fd5b50336000806101000a81548173ffffffffffffffffffffffffffffffffffffffff021916908373ffffffffffffffffffffffffffffffffffffffff160217905550611a91806100606000396000f3fe6080604052600436106100e85760003560e01c80636e6c049b1161008a5780638da5cb5b116100595780638da5cb5b146102b2578063a3ec138d146102dd578063a6f9dae11461031b578063d826f88f14610344576100e8565b80636e6c049b146102155780637e4c10991461024057806381cadf5e1461027f57806383197ef01461029b576100e8565b806314034bd2116100c657806314034bd21461017f57806338db6dd3146101aa5780633ccfd60b146101d357806350448938146101ea576100e8565b8063013cf08b146100ed57806302d4df501461012b57806312065fe014610154575b600080fd5b3480156100f957600080fd5b50610114600480360381019061010f91906111dd565b61035b565b604051610122929190611290565b60405180910390f35b34801561013757600080fd5b50610152600480360381019061014d91906112de565b610392565b005b34801561016057600080fd5b50610169610435565b6040516101769190611331565b60405180910390f35b34801561018b57600080fd5b5061019461043d565b6040516101a1919061134c565b60405180910390f35b3480156101b657600080fd5b506101d160048036038101906101cc91906113c5565b610724565b005b3480156101df57600080fd5b506101e8610873565b005b3480156101f657600080fd5b506101ff61096a565b60405161020c9190611501565b60405180910390f35b34801561022157600080fd5b5061022a610ace565b6040516102379190611331565b60405180910390f35b34801561024c57600080fd5b50610267600480360381019061026291906111dd565b610ad4565b60405161027693929190611523565b60405180910390f35b6102996004803603810190610294919061155a565b610b1b565b005b3480156102a757600080fd5b506102b0610e3d565b005b3480156102be57600080fd5b506102c7610f04565b6040516102d49190611596565b60405180910390f35b3480156102e957600080fd5b5061030460048036038101906102ff91906113c5565b610f28565b6040516103129291906115cc565b60405180910390f35b34801561032757600080fd5b50610342600480360381019061033d91906113c5565b610f59565b005b34801561035057600080fd5b506103596110a4565b005b6003816003811061036b57600080fd5b600202016000915090508060000160009054906101000a900460ff16908060010154905082565b600960405180606001604052808581526020018460028111156103b8576103b761120a565b5b81526020018381525090806001815401808255809150506001900390600052602060002090600302016000909190919091506000820151816000015560208201518160010160006101000a81548160ff0219169083600281111561041f5761041e61120a565b5b0217905550604082015181600201555050505050565b600047905090565b60008060009054906101000a900473ffffffffffffffffffffffffffffffffffffffff1673ffffffffffffffffffffffffffffffffffffffff163373ffffffffffffffffffffffffffffffffffffffff16146104ce576040517f08c379a00000000000000000000000000000000000000000000000000000000081526004016104c590611678565b60405180910390fd5b6000806000805b600381101561058f5783600382600381106104f3576104f2611698565b5b6002020160010154111561055a576003816003811061051557610514611698565b5b600202016001015493506003816003811061053357610532611698565b5b6002020160000160009054906101000a900460ff169250811561055557600091505b610582565b836003826003811061056f5761056e611698565b5b60020201600101540361058157600191505b5b80806001019150506104d5565b5080156106d2576000600367ffffffffffffffff8111156105b3576105b26116c7565b5b6040519080825280602002602001820160405280156105e15781602001602082028036833780820191505090505b5090506000805b600381101561064d57856003826003811061060657610605611698565b5b600202016001015403610640578083838061062090611725565b94508151811061063357610632611698565b5b6020026020010181815250505b80806001019150506105e8565b50600081424460405160200161066492919061178e565b6040516020818303038152906040528051906020012060001c61068791906117e9565b9050600383828151811061069e5761069d611698565b5b6020026020010151600381106106b7576106b6611698565b5b6002020160000160009054906101000a900460ff1694505050505b6001547f3e70674d4aa3f0121791998cac09559ea1f156f5b85f595118eb010531f0a7298385604051610706929190611290565b60405180910390a261071b6001548385610392565b81935050505090565b600260008273ffffffffffffffffffffffffffffffffffffffff1673ffffffffffffffffffffffffffffffffffffffff16815260200190815260200160002060000160009054906101000a900460ff16156107b4576040517f08c379a00000000000000000000000000000000000000000000000000000000081526004016107ab90611866565b60405180910390fd5b60405180604001604052806001151581526020016005815250600260008373ffffffffffffffffffffffffffffffffffffffff1673ffffffffffffffffffffffffffffffffffffffff16815260200190815260200160002060008201518160000160006101000a81548160ff021916908315150217905550602082015181600101559050507f42b360c89ba65a59ac7fec024a7bbb2c21d84b5abe5b5178ba0d7e34653a8130816040516108689190611596565b60405180910390a150565b60008054906101000a900473ffffffffffffffffffffffffffffffffffffffff1673ffffffffffffffffffffffffffffffffffffffff163373ffffffffffffffffffffffffffffffffffffffff1614610901576040517f08c379a00000000000000000000000000000000000000000000000000000000081526004016108f890611678565b60405180910390fd5b60008054906101000a900473ffffffffffffffffffffffffffffffffffffffff1673ffffffffffffffffffffffffffffffffffffffff166108fc479081150290604051600060405180830381858888f19350505050158015610967573d6000803e3d6000fd5b50565b6060600060098054905090506000600a821015610988576000610996565b600a826109959190611886565b5b90506000600a8310156109a957826109ac565b600a5b905060008167ffffffffffffffff8111156109ca576109c96116c7565b5b604051908082528060200260200182016040528015610a0357816020015b6109f061116f565b8152602001906001900390816109e85790505b50905060005b82811015610ac35760098185610a1f91906118ba565b81548110610a3057610a2f611698565b5b9060005260206000209060030201604051806060016040529081600082015481526020016001820160009054906101000a900460ff166002811115610a7857610a7761120a565b5b6002811115610a8a57610a8961120a565b5b8152602001600282015481525050828281518110610aab57610aaa611698565b5b60200260200101819052508080600101915050610a09565b508094505050505090565b60015481565b60098181548110610ae457600080fd5b90600052602060002090600302016000915090508060000154908060010160009054906101000a900460ff16908060020154905083565b600260003373ffffffffffffffffffffffffffffffffffffffff1673ffffffffffffffffffffffffffffffffffffffff16815260200190815260200160002060000160009054906101000a900460ff16610baa576040517f08c379a0000000000000000000000000000000000000000000000000000000008152600401610ba19061193a565b60405180910390fd5b6000600260003373ffffffffffffffffffffffffffffffffffffffff1673ffffffffffffffffffffffffffffffffffffffff1681526020019081526020016000206001015411610c2f576040517f08c379a0000000000000000000000000000000000000000000000000000000008152600401610c26906119a6565b60405180910390fd5b662386f26fc100003414610c78576040517f08c379a0000000000000000000000000000000000000000000000000000000008152600401610c6f90611a12565b60405180910390fd5b600260003373ffffffffffffffffffffffffffffffffffffffff1673ffffffffffffffffffffffffffffffffffffffff1681526020019081526020016000206001016000815480929190610ccb90611a32565b919050555060006002811115610ce457610ce361120a565b5b816002811115610cf757610cf661120a565b5b03610d2f576003600060038110610d1157610d10611698565b5b600202016001016000815480929190610d2990611725565b91905055505b60016002811115610d4357610d4261120a565b5b816002811115610d5657610d5561120a565b5b03610d8e576003600160038110610d7057610d6f611698565b5b600202016001016000815480929190610d8890611725565b91905055505b600280811115610da157610da061120a565b5b816002811115610db457610db361120a565b5b03610dec576003600260038110610dce57610dcd611698565b5b600202016001016000815480929190610de690611725565b91905055505b3373ffffffffffffffffffffffffffffffffffffffff167f4604340d8a2ea8853e97081e120cbe247c39861049832c19d861ed8b4126e6f782604051610e32919061134c565b60405180910390a250565b60008054906101000a900473ffffffffffffffffffffffffffffffffffffffff1673ffffffffffffffffffffffffffffffffffffffff163373ffffffffffffffffffffffffffffffffffffffff1614610ecb576040517f08c379a0000000000000000000000000000000000000000000000000000000008152600401610ec290611678565b60405180910390fd5b60008054906101000a900473ffffffffffffffffffffffffffffffffffffffff1673ffffffffffffffffffffffffffffffffffffffff16ff5b60008054906101000a900473ffffffffffffffffffffffffffffffffffffffff1681565b60026020528060005260406000206000915090508060000160009054906101000a900460ff16908060010154905082565b60008054906101000a900473ffffffffffffffffffffffffffffffffffffffff1673ffffffffffffffffffffffffffffffffffffffff163373ffffffffffffffffffffffffffffffffffffffff1614610fe7576040517f08c379a0000000000000000000000000000000000000000000000000000000008152600401610fde90611678565b60405180910390fd5b806000806101000a81548173ffffffffffffffffffffffffffffffffffffffff021916908373ffffffffffffffffffffffffffffffffffffffff1602179055508073ffffffffffffffffffffffffffffffffffffffff1660008054906101000a900473ffffffffffffffffffffffffffffffffffffffff1673ffffffffffffffffffffffffffffffffffffffff167f1c3c3d32752a939db9ac720da757226033136f4b2c9878c337e09f5c85b108da60405160405180910390a350565b60008054906101000a900473ffffffffffffffffffffffffffffffffffffffff1673ffffffffffffffffffffffffffffffffffffffff163373ffffffffffffffffffffffffffffffffffffffff1614611132576040517f08c379a000000000000000000000000000000000000000000000000000000000815260040161112990611678565b60405180910390fd5b60005b600381101561116c5760006003826003811061115457611153611698565b5b60020201600101819055508080600101915050611135565b50565b604051806060016040528060008152602001600060028111156111955761119461120a565b5b8152602001600081525090565b600080fd5b6000819050919050565b6111ba816111a7565b81146111c557600080fd5b50565b6000813590506111d7816111b1565b92915050565b6000602082840312156111f3576111f26111a2565b5b6000611201848285016111c8565b91505092915050565b7f4e487b7100000000000000000000000000000000000000000000000000000000600052602160045260246000fd5b6003811061124a5761124961120a565b5b50565b600081905061125b82611239565b919050565b600061126b8261124d565b9050919050565b61127b81611260565b82525050565b61128a816111a7565b82525050565b60006040820190506112a56000830185611272565b6112b26020830184611281565b9392505050565b600381106112c657600080fd5b50565b6000813590506112d8816112b9565b92915050565b6000806000606084860312156112f7576112f66111a2565b5b6000611305868287016111c8565b9350506020611316868287016112c9565b9250506040611327868287016111c8565b9150509250925092565b60006020820190506113466000830184611281565b92915050565b60006020820190506113616000830184611272565b92915050565b600073ffffffffffffffffffffffffffffffffffffffff82169050919050565b600061139282611367565b9050919050565b6113a281611387565b81146113ad57600080fd5b50565b6000813590506113bf81611399565b92915050565b6000602082840312156113db576113da6111a2565b5b60006113e9848285016113b0565b91505092915050565b600081519050919050565b600082825260208201905092915050565b6000819050602082019050919050565b611427816111a7565b82525050565b61143681611260565b82525050565b606082016000820151611452600085018261141e565b506020820151611465602085018261142d565b506040820151611478604085018261141e565b50505050565b600061148a838361143c565b60608301905092915050565b6000602082019050919050565b60006114ae826113f2565b6114b881856113fd565b93506114c38361140e565b8060005b838110156114f45781516114db888261147e565b97506114e683611496565b9250506001810190506114c7565b5085935050505092915050565b6000602082019050818103600083015261151b81846114a3565b905092915050565b60006060820190506115386000830186611281565b6115456020830185611272565b6115526040830184611281565b949350505050565b6000602082840312156115705761156f6111a2565b5b600061157e848285016112c9565b91505092915050565b61159081611387565b82525050565b60006020820190506115ab6000830184611587565b92915050565b60008115159050919050565b6115c6816115b1565b82525050565b60006040820190506115e160008301856115bd565b6115ee6020830184611281565b9392505050565b600082825260208201905092915050565b7f4f6e6c7920636f6e7472616374206f776e65722063616e2063616c6c2074686960008201527f732066756e6374696f6e00000000000000000000000000000000000000000000602082015250565b6000611662602a836115f5565b915061166d82611606565b604082019050919050565b6000602082019050818103600083015261169181611655565b9050919050565b7f4e487b7100000000000000000000000000000000000000000000000000000000600052603260045260246000fd5b7f4e487b7100000000000000000000000000000000000000000000000000000000600052604160045260246000fd5b7f4e487b7100000000000000000000000000000000000000000000000000000000600052601160045260246000fd5b6000611730826111a7565b91507fffffffffffffffffffffffffffffffffffffffffffffffffffffffffffffffff8203611762576117616116f6565b5b600182019050919050565b6000819050919050565b611788611783826111a7565b61176d565b82525050565b600061179a8285611777565b6020820191506117aa8284611777565b6020820191508190509392505050565b7f4e487b7100000000000000000000000000000000000000000000000000000000600052601260045260246000fd5b60006117f4826111a7565b91506117ff836111a7565b92508261180f5761180e6117ba565b5b828206905092915050565b7f566f74657220697320616c726561647920726567697374657265642100000000600082015250565b6000611850601c836115f5565b915061185b8261181a565b602082019050919050565b6000602082019050818103600083015261187f81611843565b9050919050565b6000611891826111a7565b915061189c836111a7565b92508282039050818111156118b4576118b36116f6565b5b92915050565b60006118c5826111a7565b91506118d0836111a7565b92508282019050808211156118e8576118e76116f6565b5b92915050565b7f566f746572206973206e6f7420726567697374657265642e0000000000000000600082015250565b60006119246018836115f5565b915061192f826118ee565b602082019050919050565b6000602082019050818103600083015261195381611917565b9050919050565b7f4e6f2072656d61696e696e6720766f7465730000000000000000000000000000600082015250565b60006119906012836115f5565b915061199b8261195a565b602082019050919050565b600060208201905081810360008301526119bf81611983565b9050919050565b7f4d7573742073656e6420302e303120657468657220746f20766f746500000000600082015250565b60006119fc601c836115f5565b9150611a07826119c6565b602082019050919050565b60006020820190508181036000830152611a2b816119ef565b9050919050565b6000611a3d826111a7565b915060008203611a5057611a4f6116f6565b5b60018203905091905056fea2646970667358221220b977e5546cd42204b67404dde1516fc1d71c5833082712295d5d337a32e73de464736f6c63430008180033",
  "linkReferences": {},
  "deployedLinkReferences": {}
}